{
    "contractName": "FreeCollection",
    "abi": [
        {
            "inputs": [
                {
                    "internalType": "string",
                    "name": "url",
                    "type": "string"
                }
            ],
            "stateMutability": "nonpayable",
            "type": "constructor"
        },
        {
            "anonymous": false,
            "inputs": [
                {
                    "indexed": true,
                    "internalType": "address",
                    "name": "account",
                    "type": "address"
                },
                {
                    "indexed": true,
                    "internalType": "address",
                    "name": "operator",
                    "type": "address"
                },
                {
                    "indexed": false,
                    "internalType": "bool",
                    "name": "approved",
                    "type": "bool"
                }
            ],
            "name": "ApprovalForAll",
            "type": "event"
        },
        {
            "anonymous": false,
            "inputs": [
                {
                    "indexed": true,
                    "internalType": "bytes32",
                    "name": "role",
                    "type": "bytes32"
                },
                {
                    "indexed": true,
                    "internalType": "bytes32",
                    "name": "previousAdminRole",
                    "type": "bytes32"
                },
                {
                    "indexed": true,
                    "internalType": "bytes32",
                    "name": "newAdminRole",
                    "type": "bytes32"
                }
            ],
            "name": "RoleAdminChanged",
            "type": "event"
        },
        {
            "anonymous": false,
            "inputs": [
                {
                    "indexed": true,
                    "internalType": "bytes32",
                    "name": "role",
                    "type": "bytes32"
                },
                {
                    "indexed": true,
                    "internalType": "address",
                    "name": "account",
                    "type": "address"
                },
                {
                    "indexed": true,
                    "internalType": "address",
                    "name": "sender",
                    "type": "address"
                }
            ],
            "name": "RoleGranted",
            "type": "event"
        },
        {
            "anonymous": false,
            "inputs": [
                {
                    "indexed": true,
                    "internalType": "bytes32",
                    "name": "role",
                    "type": "bytes32"
                },
                {
                    "indexed": true,
                    "internalType": "address",
                    "name": "account",
                    "type": "address"
                },
                {
                    "indexed": true,
                    "internalType": "address",
                    "name": "sender",
                    "type": "address"
                }
            ],
            "name": "RoleRevoked",
            "type": "event"
        },
        {
            "anonymous": false,
            "inputs": [
                {
                    "indexed": true,
                    "internalType": "address",
                    "name": "operator",
                    "type": "address"
                },
                {
                    "indexed": true,
                    "internalType": "address",
                    "name": "from",
                    "type": "address"
                },
                {
                    "indexed": true,
                    "internalType": "address",
                    "name": "to",
                    "type": "address"
                },
                {
                    "indexed": false,
                    "internalType": "uint256[]",
                    "name": "ids",
                    "type": "uint256[]"
                },
                {
                    "indexed": false,
                    "internalType": "uint256[]",
                    "name": "values",
                    "type": "uint256[]"
                }
            ],
            "name": "TransferBatch",
            "type": "event"
        },
        {
            "anonymous": false,
            "inputs": [
                {
                    "indexed": true,
                    "internalType": "address",
                    "name": "operator",
                    "type": "address"
                },
                {
                    "indexed": true,
                    "internalType": "address",
                    "name": "from",
                    "type": "address"
                },
                {
                    "indexed": true,
                    "internalType": "address",
                    "name": "to",
                    "type": "address"
                },
                {
                    "indexed": false,
                    "internalType": "uint256",
                    "name": "id",
                    "type": "uint256"
                },
                {
                    "indexed": false,
                    "internalType": "uint256",
                    "name": "value",
                    "type": "uint256"
                }
            ],
            "name": "TransferSingle",
            "type": "event"
        },
        {
            "anonymous": false,
            "inputs": [
                {
                    "indexed": false,
                    "internalType": "string",
                    "name": "value",
                    "type": "string"
                },
                {
                    "indexed": true,
                    "internalType": "uint256",
                    "name": "id",
                    "type": "uint256"
                }
            ],
            "name": "URI",
            "type": "event"
        },
        {
            "inputs": [],
            "name": "DEFAULT_ADMIN_ROLE",
            "outputs": [
                {
                    "internalType": "bytes32",
                    "name": "",
                    "type": "bytes32"
                }
            ],
            "stateMutability": "view",
            "type": "function"
        },
        {
            "inputs": [
                {
                    "internalType": "address",
                    "name": "account",
                    "type": "address"
                },
                {
                    "internalType": "uint256",
                    "name": "id",
                    "type": "uint256"
                }
            ],
            "name": "balanceOf",
            "outputs": [
                {
                    "internalType": "uint256",
                    "name": "",
                    "type": "uint256"
                }
            ],
            "stateMutability": "view",
            "type": "function"
        },
        {
            "inputs": [
                {
                    "internalType": "address[]",
                    "name": "accounts",
                    "type": "address[]"
                },
                {
                    "internalType": "uint256[]",
                    "name": "ids",
                    "type": "uint256[]"
                }
            ],
            "name": "balanceOfBatch",
            "outputs": [
                {
                    "internalType": "uint256[]",
                    "name": "",
                    "type": "uint256[]"
                }
            ],
            "stateMutability": "view",
            "type": "function"
        },
        {
            "inputs": [],
            "name": "freeAccessID",
            "outputs": [
                {
                    "internalType": "uint256",
                    "name": "",
                    "type": "uint256"
                }
            ],
            "stateMutability": "view",
            "type": "function"
        },
        {
            "inputs": [],
            "name": "freeMint",
            "outputs": [],
            "stateMutability": "nonpayable",
            "type": "function"
        },
        {
            "inputs": [
                {
                    "internalType": "bytes32",
                    "name": "role",
                    "type": "bytes32"
                }
            ],
            "name": "getRoleAdmin",
            "outputs": [
                {
                    "internalType": "bytes32",
                    "name": "",
                    "type": "bytes32"
                }
            ],
            "stateMutability": "view",
            "type": "function"
        },
        {
            "inputs": [
                {
                    "internalType": "bytes32",
                    "name": "role",
                    "type": "bytes32"
                },
                {
                    "internalType": "address",
                    "name": "account",
                    "type": "address"
                }
            ],
            "name": "grantRole",
            "outputs": [],
            "stateMutability": "nonpayable",
            "type": "function"
        },
        {
            "inputs": [
                {
                    "internalType": "bytes32",
                    "name": "role",
                    "type": "bytes32"
                },
                {
                    "internalType": "address",
                    "name": "account",
                    "type": "address"
                }
            ],
            "name": "hasRole",
            "outputs": [
                {
                    "internalType": "bool",
                    "name": "",
                    "type": "bool"
                }
            ],
            "stateMutability": "view",
            "type": "function"
        },
        {
            "inputs": [
                {
                    "internalType": "address",
                    "name": "account",
                    "type": "address"
                },
                {
                    "internalType": "address",
                    "name": "operator",
                    "type": "address"
                }
            ],
            "name": "isApprovedForAll",
            "outputs": [
                {
                    "internalType": "bool",
                    "name": "",
                    "type": "bool"
                }
            ],
            "stateMutability": "view",
            "type": "function"
        },
        {
            "inputs": [
                {
                    "internalType": "address",
                    "name": "to",
                    "type": "address"
                },
                {
                    "internalType": "uint256",
                    "name": "tokenId",
                    "type": "uint256"
                },
                {
                    "internalType": "uint256",
                    "name": "amount",
                    "type": "uint256"
                }
            ],
            "name": "mint",
            "outputs": [
                {
                    "internalType": "bool",
                    "name": "",
                    "type": "bool"
                }
            ],
            "stateMutability": "nonpayable",
            "type": "function"
        },
        {
            "inputs": [
                {
                    "internalType": "address",
                    "name": "_to",
                    "type": "address"
                },
                {
                    "internalType": "uint256",
                    "name": "_tokenId",
                    "type": "uint256"
                },
                {
                    "internalType": "uint256",
                    "name": "_amount",
                    "type": "uint256"
                },
                {
                    "internalType": "bytes",
                    "name": "_data",
                    "type": "bytes"
                }
            ],
            "name": "mint",
            "outputs": [],
            "stateMutability": "nonpayable",
            "type": "function"
        },
        {
            "inputs": [
                {
                    "internalType": "bytes32",
                    "name": "role",
                    "type": "bytes32"
                },
                {
                    "internalType": "address",
                    "name": "account",
                    "type": "address"
                }
            ],
            "name": "renounceRole",
            "outputs": [],
            "stateMutability": "nonpayable",
            "type": "function"
        },
        {
            "inputs": [
                {
                    "internalType": "bytes32",
                    "name": "role",
                    "type": "bytes32"
                },
                {
                    "internalType": "address",
                    "name": "account",
                    "type": "address"
                }
            ],
            "name": "revokeRole",
            "outputs": [],
            "stateMutability": "nonpayable",
            "type": "function"
        },
        {
            "inputs": [
                {
                    "internalType": "address",
                    "name": "from",
                    "type": "address"
                },
                {
                    "internalType": "address",
                    "name": "to",
                    "type": "address"
                },
                {
                    "internalType": "uint256[]",
                    "name": "ids",
                    "type": "uint256[]"
                },
                {
                    "internalType": "uint256[]",
                    "name": "amounts",
                    "type": "uint256[]"
                },
                {
                    "internalType": "bytes",
                    "name": "data",
                    "type": "bytes"
                }
            ],
            "name": "safeBatchTransferFrom",
            "outputs": [],
            "stateMutability": "nonpayable",
            "type": "function"
        },
        {
            "inputs": [
                {
                    "internalType": "address",
                    "name": "from",
                    "type": "address"
                },
                {
                    "internalType": "address",
                    "name": "to",
                    "type": "address"
                },
                {
                    "internalType": "uint256",
                    "name": "id",
                    "type": "uint256"
                },
                {
                    "internalType": "uint256",
                    "name": "amount",
                    "type": "uint256"
                },
                {
                    "internalType": "bytes",
                    "name": "data",
                    "type": "bytes"
                }
            ],
            "name": "safeTransferFrom",
            "outputs": [],
            "stateMutability": "nonpayable",
            "type": "function"
        },
        {
            "inputs": [
                {
                    "internalType": "address",
                    "name": "operator",
                    "type": "address"
                },
                {
                    "internalType": "bool",
                    "name": "approved",
                    "type": "bool"
                }
            ],
            "name": "setApprovalForAll",
            "outputs": [],
            "stateMutability": "nonpayable",
            "type": "function"
        },
        {
            "inputs": [
                {
                    "internalType": "uint256",
                    "name": "id",
                    "type": "uint256"
                },
                {
                    "internalType": "string",
                    "name": "urL",
                    "type": "string"
                }
            ],
            "name": "setURI",
            "outputs": [],
            "stateMutability": "nonpayable",
            "type": "function"
        },
        {
            "inputs": [
                {
                    "internalType": "bytes4",
                    "name": "interfaceId",
                    "type": "bytes4"
                }
            ],
            "name": "supportsInterface",
            "outputs": [
                {
                    "internalType": "bool",
                    "name": "",
                    "type": "bool"
                }
            ],
            "stateMutability": "view",
            "type": "function"
        },
        {
            "inputs": [
                {
                    "internalType": "uint256",
                    "name": "tokenID",
                    "type": "uint256"
                }
            ],
            "name": "uri",
            "outputs": [
                {
                    "internalType": "string",
                    "name": "",
                    "type": "string"
                }
            ],
            "stateMutability": "view",
            "type": "function"
        },
        {
            "inputs": [
                {
                    "internalType": "address",
                    "name": "",
                    "type": "address"
                },
                {
                    "internalType": "uint256",
                    "name": "",
                    "type": "uint256"
                }
            ],
            "name": "userMinted",
            "outputs": [
                {
                    "internalType": "bool",
                    "name": "",
                    "type": "bool"
                }
            ],
            "stateMutability": "view",
            "type": "function"
        }
    ],
    "bytecode": "60a0604052600060809081526004906200001a908262000a36565b503480156200002857600080fd5b5060405162002a0d38038062002a0d8339810160408190526200004b9162000b57565b6040805160208101909152600081526200006581620000c1565b5062000073600033620000d3565b6200007e816200015d565b620000ba33600060016040518060400160405280600e81526020016d39b2393b3bb9bb39bbb2bb39b2bb60911b8152506200016b60201b60201c565b5062000edb565b6002620000cf828262000a36565b5050565b620000df8282620001b4565b620000cf5760008281526003602090815260408083206001600160a01b03851684529091529020805460ff19166001179055620001193390565b6001600160a01b0316816001600160a01b0316837f2f8788117e7eff1d82e926ec794901d17c78024a50270940304540a733656f0d60405160405180910390a45050565b6004620000cf828262000a36565b60006200017881620001e1565b60008280602001905181019062000190919062000b57565b90506200019e8582620001f0565b620001ac8686868662000253565b505050505050565b60008281526003602090815260408083206001600160a01b038516845290915290205460ff165b92915050565b620001ed813362000375565b50565b60008281526005602052604090206200020a828262000a36565b50817f6bb7ff708619ba0610cba295a58592e0451dee2622938c8755667688daf3529b6200023882620003ed565b60405162000247919062000c27565b60405180910390a25050565b6001600160a01b038416620002b95760405162461bcd60e51b815260206004820152602160248201527f455243313135353a206d696e7420746f20746865207a65726f206164647265736044820152607360f81b60648201526084015b60405180910390fd5b336000620002c78562000405565b90506000620002d68562000405565b90506000868152602081815260408083206001600160a01b038b168452909152812080548792906200030a90849062000c52565b909155505060408051878152602081018790526001600160a01b03808a1692600092918716917fc3d58168c5ae7397731d063d5bbf3d657854427343f4c083240f7aacaa2d0f62910160405180910390a46200036c8360008989898962000453565b50505050505050565b620003818282620001b4565b620000cf576200039c816200061f60201b620007851760201c565b620003b28360206200079762000632821b17811c565b604051602001620003c592919062000c68565b60408051601f198184030181529082905262461bcd60e51b8252620002b09160040162000c27565b6060620001db82620007f260201b620009391760201c565b6040805160018082528183019092526060916000919060208083019080368337019050509050828160008151811062000442576200044262000ce1565b602090810291909101015292915050565b62000472846001600160a01b0316620008ea60201b62000a181760201c565b15620001ac5760405163f23a6e6160e01b81526001600160a01b0385169063f23a6e6190620004ae908990899088908890889060040162000cf7565b6020604051808303816000875af1925050508015620004ec575060408051601f3d908101601f19168201909252620004e99181019062000d3e565b60015b620005ac57620004fb62000d6a565b806308c379a0036200053b57506200051262000d87565b806200051f57506200053d565b8060405162461bcd60e51b8152600401620002b0919062000c27565b505b60405162461bcd60e51b815260206004820152603460248201527f455243313135353a207472616e7366657220746f206e6f6e2d4552433131353560448201527f526563656976657220696d706c656d656e7465720000000000000000000000006064820152608401620002b0565b6001600160e01b0319811663f23a6e6160e01b146200036c5760405162461bcd60e51b815260206004820152602860248201527f455243313135353a204552433131353552656365697665722072656a656374656044820152676420746f6b656e7360c01b6064820152608401620002b0565b6060620001db6001600160a01b03831660145b606060006200064383600262000e16565b6200065090600262000c52565b6001600160401b038111156200066a576200066a62000995565b6040519080825280601f01601f19166020018201604052801562000695576020820181803683370190505b509050600360fc1b81600081518110620006b357620006b362000ce1565b60200101906001600160f81b031916908160001a905350600f60fb1b81600181518110620006e557620006e562000ce1565b60200101906001600160f81b031916908160001a90535060006200070b84600262000e16565b6200071890600162000c52565b90505b60018111156200079a576f181899199a1a9b1b9c1cb0b131b232b360811b85600f166010811062000750576200075062000ce1565b1a60f81b82828151811062000769576200076962000ce1565b60200101906001600160f81b031916908160001a90535060049490941c93620007928162000e30565b90506200071b565b508315620007eb5760405162461bcd60e51b815260206004820181905260248201527f537472696e67733a20686578206c656e67746820696e73756666696369656e746044820152606401620002b0565b9392505050565b6000818152600560205260408120805460609291906200081290620009ab565b80601f01602080910402602001604051908101604052809291908181526020018280546200084090620009ab565b8015620008915780601f10620008655761010080835404028352916020019162000891565b820191906000526020600020905b8154815290600101906020018083116200087357829003601f168201915b505050505090506000815111620008be57620008b883620008f960201b62000a271760201c565b620007eb565b600481604051602001620008d492919062000e4a565b6040516020818303038152906040529392505050565b6001600160a01b03163b151590565b6060600280546200090a90620009ab565b80601f01602080910402602001604051908101604052809291908181526020018280546200093890620009ab565b8015620009895780601f106200095d5761010080835404028352916020019162000989565b820191906000526020600020905b8154815290600101906020018083116200096b57829003601f168201915b50505050509050919050565b634e487b7160e01b600052604160045260246000fd5b600181811c90821680620009c057607f821691505b602082108103620009e157634e487b7160e01b600052602260045260246000fd5b50919050565b601f82111562000a3157600081815260208120601f850160051c8101602086101562000a105750805b601f850160051c820191505b81811015620001ac5782815560010162000a1c565b505050565b81516001600160401b0381111562000a525762000a5262000995565b62000a6a8162000a638454620009ab565b84620009e7565b602080601f83116001811462000aa2576000841562000a895750858301515b600019600386901b1c1916600185901b178555620001ac565b600085815260208120601f198616915b8281101562000ad35788860151825594840194600190910190840162000ab2565b508582101562000af25787850151600019600388901b60f8161c191681555b5050505050600190811b01905550565b601f8201601f191681016001600160401b038111828210171562000b2a5762000b2a62000995565b6040525050565b60005b8381101562000b4e57818101518382015260200162000b34565b50506000910152565b60006020828403121562000b6a57600080fd5b81516001600160401b038082111562000b8257600080fd5b818401915084601f83011262000b9757600080fd5b81518181111562000bac5762000bac62000995565b604051915062000bc7601f8201601f19166020018362000b02565b80825285602082850101111562000bdd57600080fd5b62000bf081602084016020860162000b31565b50949350505050565b6000815180845262000c1381602086016020860162000b31565b601f01601f19169290920160200192915050565b602081526000620007eb602083018462000bf9565b634e487b7160e01b600052601160045260246000fd5b80820180821115620001db57620001db62000c3c565b7f416363657373436f6e74726f6c3a206163636f756e742000000000000000000081526000835162000ca281601785016020880162000b31565b7001034b99036b4b9b9b4b733903937b6329607d1b601791840191820152835162000cd581602884016020880162000b31565b01602801949350505050565b634e487b7160e01b600052603260045260246000fd5b6001600160a01b03868116825285166020820152604081018490526060810183905260a06080820181905260009062000d339083018462000bf9565b979650505050505050565b60006020828403121562000d5157600080fd5b81516001600160e01b031981168114620007eb57600080fd5b600060033d111562000d845760046000803e5060005160e01c5b90565b600060443d101562000d965790565b6040516003193d81016004833e81513d6001600160401b03808311602484018310171562000dc657505050505090565b828501915081518181111562000ddf5750505050505090565b843d870101602082850101111562000dfa5750505050505090565b62000e0b6020828601018762000b02565b509095945050505050565b8082028115828204841417620001db57620001db62000c3c565b60008162000e425762000e4262000c3c565b506000190190565b600080845462000e5a81620009ab565b6001828116801562000e75576001811462000e8b5762000ebc565b60ff198416875282151583028701945062000ebc565b8860005260208060002060005b8581101562000eb35781548a82015290840190820162000e98565b50505082870194505b50505050835162000ed281836020880162000b31565b01949350505050565b611b228062000eeb6000396000f3fe608060405234801561001057600080fd5b506004361061012b5760003560e01c80635af0e2f9116100ad578063a217fddf11610071578063a217fddf146102a2578063a22cb465146102aa578063d547741f146102bd578063e985e9c5146102d0578063f242432a1461030c57600080fd5b80635af0e2f9146102585780635b70ea9f14610261578063731133e914610269578063862440e21461027c57806391d148541461028f57600080fd5b80632eb2c2d6116100f45780632eb2c2d6146101cf5780632f2ff15d146101e457806336568abe146101f75780634e1273f41461020a57806353f23a271461022a57600080fd5b8062fdd58e1461013057806301ffc9a7146101565780630e89341c14610179578063156e29f614610199578063248a9ca3146101ac575b600080fd5b61014361013e3660046110d7565b61031f565b6040519081526020015b60405180910390f35b610169610164366004611117565b6103b8565b604051901515815260200161014d565b61018c610187366004611134565b6103c3565b60405161014d919061119d565b6101696101a73660046111b0565b6103ce565b6101436101ba366004611134565b60009081526003602052604090206001015490565b6101e26101dd366004611346565b610400565b005b6101e26101f23660046113ef565b610420565b6101e26102053660046113ef565b61044a565b61021d61021836600461141b565b6104c8565b60405161014d91906114e5565b6101696102383660046110d7565b600660209081526000928352604080842090915290825290205460ff1681565b61014360075481565b6101e26105f1565b6101e2610277366004611529565b6106c8565b6101e261028a366004611589565b610701565b61016961029d3660046113ef565b610716565b610143600081565b6101e26102b83660046115d9565b610741565b6101e26102cb3660046113ef565b61074c565b6101696102de366004611615565b6001600160a01b03918216600090815260016020908152604080832093909416825291909152205460ff1690565b6101e261031a36600461163f565b610771565b60006001600160a01b03831661038f5760405162461bcd60e51b815260206004820152602a60248201527f455243313135353a2061646472657373207a65726f206973206e6f742061207660448201526930b634b21037bbb732b960b11b60648201526084015b60405180910390fd5b506000818152602081815260408083206001600160a01b03861684529091529020545b92915050565b60006103b282610abb565b60606103b282610939565b6000806103da81610ae0565b6103f585858560405180602001604052806000815250610aed565b506001949350505050565b600061040b81610ae0565b6104188686868686610400565b505050505050565b60008281526003602052604090206001015461043b81610ae0565b6104458383610c01565b505050565b6001600160a01b03811633146104ba5760405162461bcd60e51b815260206004820152602f60248201527f416363657373436f6e74726f6c3a2063616e206f6e6c792072656e6f756e636560448201526e103937b632b9903337b91039b2b63360891b6064820152608401610386565b6104c48282610c87565b5050565b6060815183511461052d5760405162461bcd60e51b815260206004820152602960248201527f455243313135353a206163636f756e747320616e6420696473206c656e677468604482015268040dad2e6dac2e8c6d60bb1b6064820152608401610386565b600083516001600160401b03811115610548576105486111e3565b604051908082528060200260200182016040528015610571578160200160208202803683370190505b50905060005b84518110156105e9576105bc858281518110610595576105956116a3565b60200260200101518583815181106105af576105af6116a3565b602002602001015161031f565b8282815181106105ce576105ce6116a3565b60209081029190910101526105e2816116cf565b9050610577565b509392505050565b336000908152600660209081526040808320600754845290915290205460ff161561064f5760405162461bcd60e51b815260206004820152600e60248201526d43616e74206d696e74206d6f726560901b6044820152606401610386565b61065b3060075461031f565b156106a85760405162461bcd60e51b815260206004820152601a60248201527f596f7520616c7265616479206861766520667265652062796b650000000000006044820152606401610386565b6106c633600754600160405180602001604052806000815250610aed565b565b60006106d381610ae0565b6000828060200190518101906106e991906116e8565b90506106f58582610cee565b61041886868686610aed565b600061070c81610ae0565b6104458383610cee565b60009182526003602090815260408084206001600160a01b0393909316845291905290205460ff1690565b6104c4338383610d4b565b60008281526003602052604090206001015461076781610ae0565b6104458383610c87565b61077e8585858585610771565b5050505050565b60606103b26001600160a01b03831660145b606060006107a6836002611769565b6107b1906002611780565b6001600160401b038111156107c8576107c86111e3565b6040519080825280601f01601f1916602001820160405280156107f2576020820181803683370190505b509050600360fc1b8160008151811061080d5761080d6116a3565b60200101906001600160f81b031916908160001a905350600f60fb1b8160018151811061083c5761083c6116a3565b60200101906001600160f81b031916908160001a9053506000610860846002611769565b61086b906001611780565b90505b60018111156108e3576f181899199a1a9b1b9c1cb0b131b232b360811b85600f166010811061089f5761089f6116a3565b1a60f81b8282815181106108b5576108b56116a3565b60200101906001600160f81b031916908160001a90535060049490941c936108dc81611793565b905061086e565b5083156109325760405162461bcd60e51b815260206004820181905260248201527f537472696e67733a20686578206c656e67746820696e73756666696369656e746044820152606401610386565b9392505050565b600081815260056020526040812080546060929190610957906117aa565b80601f0160208091040260200160405190810160405280929190818152602001828054610983906117aa565b80156109d05780601f106109a5576101008083540402835291602001916109d0565b820191906000526020600020905b8154815290600101906020018083116109b357829003601f168201915b5050505050905060008151116109ee576109e983610a27565b610932565b600481604051602001610a029291906117e4565b6040516020818303038152906040529392505050565b6001600160a01b03163b151590565b606060028054610a36906117aa565b80601f0160208091040260200160405190810160405280929190818152602001828054610a62906117aa565b8015610aaf5780601f10610a8457610100808354040283529160200191610aaf565b820191906000526020600020905b815481529060010190602001808311610a9257829003601f168201915b50505050509050919050565b60006001600160e01b03198216637965db0b60e01b14806103b257506103b282610e2b565b610aea8133610e7b565b50565b6001600160a01b038416610b4d5760405162461bcd60e51b815260206004820152602160248201527f455243313135353a206d696e7420746f20746865207a65726f206164647265736044820152607360f81b6064820152608401610386565b336000610b5985610ed4565b90506000610b6685610ed4565b90506000868152602081815260408083206001600160a01b038b16845290915281208054879290610b98908490611780565b909155505060408051878152602081018790526001600160a01b03808a1692600092918716917fc3d58168c5ae7397731d063d5bbf3d657854427343f4c083240f7aacaa2d0f62910160405180910390a4610bf883600089898989610f1f565b50505050505050565b610c0b8282610716565b6104c45760008281526003602090815260408083206001600160a01b03851684529091529020805460ff19166001179055610c433390565b6001600160a01b0316816001600160a01b0316837f2f8788117e7eff1d82e926ec794901d17c78024a50270940304540a733656f0d60405160405180910390a45050565b610c918282610716565b156104c45760008281526003602090815260408083206001600160a01b0385168085529252808320805460ff1916905551339285917ff6391f5c32d9c69d2a47ea670b442974b53935d1edc7fd64eb21e047a839171b9190a45050565b6000828152600560205260409020610d0682826118b1565b50817f6bb7ff708619ba0610cba295a58592e0451dee2622938c8755667688daf3529b610d32846103c3565b604051610d3f919061119d565b60405180910390a25050565b816001600160a01b0316836001600160a01b031603610dbe5760405162461bcd60e51b815260206004820152602960248201527f455243313135353a2073657474696e6720617070726f76616c20737461747573604482015268103337b91039b2b63360b91b6064820152608401610386565b6001600160a01b03838116600081815260016020908152604080832094871680845294825291829020805460ff191686151590811790915591519182527f17307eab39ab6107e8899845ad3d59bd9653f200f220920489ca2b5937696c31910160405180910390a3505050565b60006001600160e01b03198216636cdb3d1360e11b1480610e5c57506001600160e01b031982166303a24d0760e21b145b806103b257506301ffc9a760e01b6001600160e01b03198316146103b2565b610e858282610716565b6104c457610e9281610785565b610e9d836020610797565b604051602001610eae929190611970565b60408051601f198184030181529082905262461bcd60e51b82526103869160040161119d565b60408051600180825281830190925260609160009190602080830190803683370190505090508281600081518110610f0e57610f0e6116a3565b602090810291909101015292915050565b6001600160a01b0384163b156104185760405163f23a6e6160e01b81526001600160a01b0385169063f23a6e6190610f6390899089908890889088906004016119e5565b6020604051808303816000875af1925050508015610f9e575060408051601f3d908101601f19168201909252610f9b91810190611a2a565b60015b61104a57610faa611a47565b806308c379a003610fe35750610fbe611a63565b80610fc95750610fe5565b8060405162461bcd60e51b8152600401610386919061119d565b505b60405162461bcd60e51b815260206004820152603460248201527f455243313135353a207472616e7366657220746f206e6f6e2d455243313135356044820152732932b1b2b4bb32b91034b6b83632b6b2b73a32b960611b6064820152608401610386565b6001600160e01b0319811663f23a6e6160e01b14610bf85760405162461bcd60e51b815260206004820152602860248201527f455243313135353a204552433131353552656365697665722072656a656374656044820152676420746f6b656e7360c01b6064820152608401610386565b80356001600160a01b03811681146110d257600080fd5b919050565b600080604083850312156110ea57600080fd5b6110f3836110bb565b946020939093013593505050565b6001600160e01b031981168114610aea57600080fd5b60006020828403121561112957600080fd5b813561093281611101565b60006020828403121561114657600080fd5b5035919050565b60005b83811015611168578181015183820152602001611150565b50506000910152565b6000815180845261118981602086016020860161114d565b601f01601f19169290920160200192915050565b6020815260006109326020830184611171565b6000806000606084860312156111c557600080fd5b6111ce846110bb565b95602085013595506040909401359392505050565b634e487b7160e01b600052604160045260246000fd5b601f8201601f191681016001600160401b038111828210171561121e5761121e6111e3565b6040525050565b60006001600160401b0382111561123e5761123e6111e3565b5060051b60200190565b600082601f83011261125957600080fd5b8135602061126682611225565b60405161127382826111f9565b83815260059390931b850182019282810191508684111561129357600080fd5b8286015b848110156112ae5780358352918301918301611297565b509695505050505050565b60006001600160401b038211156112d2576112d26111e3565b50601f01601f191660200190565b60006112eb836112b9565b6040516112f882826111f9565b80925084815285858501111561130d57600080fd5b8484602083013760006020868301015250509392505050565b600082601f83011261133757600080fd5b610932838335602085016112e0565b600080600080600060a0868803121561135e57600080fd5b611367866110bb565b9450611375602087016110bb565b935060408601356001600160401b038082111561139157600080fd5b61139d89838a01611248565b945060608801359150808211156113b357600080fd5b6113bf89838a01611248565b935060808801359150808211156113d557600080fd5b506113e288828901611326565b9150509295509295909350565b6000806040838503121561140257600080fd5b82359150611412602084016110bb565b90509250929050565b6000806040838503121561142e57600080fd5b82356001600160401b038082111561144557600080fd5b818501915085601f83011261145957600080fd5b8135602061146682611225565b60405161147382826111f9565b83815260059390931b850182019282810191508984111561149357600080fd5b948201945b838610156114b8576114a9866110bb565b82529482019490820190611498565b965050860135925050808211156114ce57600080fd5b506114db85828601611248565b9150509250929050565b6020808252825182820181905260009190848201906040850190845b8181101561151d57835183529284019291840191600101611501565b50909695505050505050565b6000806000806080858703121561153f57600080fd5b611548856110bb565b9350602085013592506040850135915060608501356001600160401b0381111561157157600080fd5b61157d87828801611326565b91505092959194509250565b6000806040838503121561159c57600080fd5b8235915060208301356001600160401b038111156115b957600080fd5b8301601f810185136115ca57600080fd5b6114db858235602084016112e0565b600080604083850312156115ec57600080fd5b6115f5836110bb565b91506020830135801515811461160a57600080fd5b809150509250929050565b6000806040838503121561162857600080fd5b611631836110bb565b9150611412602084016110bb565b600080600080600060a0868803121561165757600080fd5b611660866110bb565b945061166e602087016110bb565b9350604086013592506060860135915060808601356001600160401b0381111561169757600080fd5b6113e288828901611326565b634e487b7160e01b600052603260045260246000fd5b634e487b7160e01b600052601160045260246000fd5b6000600182016116e1576116e16116b9565b5060010190565b6000602082840312156116fa57600080fd5b81516001600160401b0381111561171057600080fd5b8201601f8101841361172157600080fd5b805161172c816112b9565b60405161173982826111f9565b82815286602084860101111561174e57600080fd5b61175f83602083016020870161114d565b9695505050505050565b80820281158282048414176103b2576103b26116b9565b808201808211156103b2576103b26116b9565b6000816117a2576117a26116b9565b506000190190565b600181811c908216806117be57607f821691505b6020821081036117de57634e487b7160e01b600052602260045260246000fd5b50919050565b60008084546117f2816117aa565b6001828116801561180a576001811461181f5761184e565b60ff198416875282151583028701945061184e565b8860005260208060002060005b858110156118455781548a82015290840190820161182c565b50505082870194505b50505050835161186281836020880161114d565b01949350505050565b601f82111561044557600081815260208120601f850160051c810160208610156118925750805b601f850160051c820191505b818110156104185782815560010161189e565b81516001600160401b038111156118ca576118ca6111e3565b6118de816118d884546117aa565b8461186b565b602080601f83116001811461191357600084156118fb5750858301515b600019600386901b1c1916600185901b178555610418565b600085815260208120601f198616915b8281101561194257888601518255948401946001909101908401611923565b50858210156119605787850151600019600388901b60f8161c191681555b5050505050600190811b01905550565b7f416363657373436f6e74726f6c3a206163636f756e74200000000000000000008152600083516119a881601785016020880161114d565b7001034b99036b4b9b9b4b733903937b6329607d1b60179184019182015283516119d981602884016020880161114d565b01602801949350505050565b6001600160a01b03868116825285166020820152604081018490526060810183905260a060808201819052600090611a1f90830184611171565b979650505050505050565b600060208284031215611a3c57600080fd5b815161093281611101565b600060033d1115611a605760046000803e5060005160e01c5b90565b600060443d1015611a715790565b6040516003193d81016004833e81513d6001600160401b038160248401118184111715611aa057505050505090565b8285019150815181811115611ab85750505050505090565b843d8701016020828501011115611ad25750505050505090565b611ae1602082860101876111f9565b50909594505050505056fea2646970667358221220edc5d0d089ce36c41185264045d63835ae6a7636058652c51dcd7e61cbf9f1f064736f6c63430008110033",
    "sourcePath": "c:/Users/kolam/Desktop/mtb-token-master/contracts/FreeCollection.sol",
    "compiler": {
        "name": "solc",
        "version": "0.8.17+commit.8df45f5f"
    },
    "functionHashes": {
        "DEFAULT_ADMIN_ROLE()": "a217fddf",
        "balanceOf(address,uint256)": "00fdd58e",
        "balanceOfBatch(address[],uint256[])": "4e1273f4",
        "freeAccessID()": "5af0e2f9",
        "freeMint()": "5b70ea9f",
        "getRoleAdmin(bytes32)": "248a9ca3",
        "grantRole(bytes32,address)": "2f2ff15d",
        "hasRole(bytes32,address)": "91d14854",
        "isApprovedForAll(address,address)": "e985e9c5",
        "mint(address,uint256,uint256)": "156e29f6",
        "mint(address,uint256,uint256,bytes)": "731133e9",
        "renounceRole(bytes32,address)": "36568abe",
        "revokeRole(bytes32,address)": "d547741f",
        "safeBatchTransferFrom(address,address,uint256[],uint256[],bytes)": "2eb2c2d6",
        "safeTransferFrom(address,address,uint256,uint256,bytes)": "f242432a",
        "setApprovalForAll(address,bool)": "a22cb465",
        "setURI(uint256,string)": "862440e2",
        "supportsInterface(bytes4)": "01ffc9a7",
        "uri(uint256)": "0e89341c",
        "userMinted(address,uint256)": "53f23a27"
    },
    "gasEstimates": {
        "creation": {
            "codeDepositCost": "1389200",
            "executionCost": "infinite",
            "totalCost": "infinite"
        },
        "external": {
            "DEFAULT_ADMIN_ROLE()": "206",
            "balanceOf(address,uint256)": "2700",
            "balanceOfBatch(address[],uint256[])": "infinite",
            "freeAccessID()": "2307",
            "freeMint()": "infinite",
            "getRoleAdmin(bytes32)": "2545",
            "grantRole(bytes32,address)": "infinite",
            "hasRole(bytes32,address)": "2776",
            "isApprovedForAll(address,address)": "infinite",
            "mint(address,uint256,uint256)": "infinite",
            "mint(address,uint256,uint256,bytes)": "infinite",
            "renounceRole(bytes32,address)": "29068",
            "revokeRole(bytes32,address)": "infinite",
            "safeBatchTransferFrom(address,address,uint256[],uint256[],bytes)": "infinite",
            "safeTransferFrom(address,address,uint256,uint256,bytes)": "infinite",
            "setApprovalForAll(address,bool)": "26727",
            "setURI(uint256,string)": "infinite",
            "supportsInterface(bytes4)": "infinite",
            "uri(uint256)": "infinite",
            "userMinted(address,uint256)": "2735"
        }
    }
}